{
  "_format": "hh-sol-artifact-1",
  "contractName": "ZCHFUSDTCurvePriceAdapter",
  "sourceName": "contracts/ZCHFUSDTCurvePriceAdapter.sol",
  "abi": [
    {
      "inputs": [
        {
          "internalType": "address",
          "name": "_curvePool",
          "type": "address"
        }
      ],
      "stateMutability": "nonpayable",
      "type": "constructor"
    },
    {
      "inputs": [],
      "name": "curvePool",
      "outputs": [
        {
          "internalType": "contract ICurvePool",
          "name": "",
          "type": "address"
        }
      ],
      "stateMutability": "view",
      "type": "function"
    },
    {
      "inputs": [],
      "name": "decimals",
      "outputs": [
        {
          "internalType": "uint8",
          "name": "",
          "type": "uint8"
        }
      ],
      "stateMutability": "pure",
      "type": "function"
    },
    {
      "inputs": [],
      "name": "description",
      "outputs": [
        {
          "internalType": "string",
          "name": "",
          "type": "string"
        }
      ],
      "stateMutability": "pure",
      "type": "function"
    },
    {
      "inputs": [],
      "name": "latestRoundData",
      "outputs": [
        {
          "internalType": "uint80",
          "name": "roundId",
          "type": "uint80"
        },
        {
          "internalType": "int256",
          "name": "answer",
          "type": "int256"
        },
        {
          "internalType": "uint256",
          "name": "startedAt",
          "type": "uint256"
        },
        {
          "internalType": "uint256",
          "name": "updatedAt",
          "type": "uint256"
        },
        {
          "internalType": "uint80",
          "name": "answeredInRound",
          "type": "uint80"
        }
      ],
      "stateMutability": "view",
      "type": "function"
    }
  ],
  "bytecode": "0x60a060405234801561001057600080fd5b5060405161030538038061030583398101604081905261002f91610040565b6001600160a01b0316608052610070565b60006020828403121561005257600080fd5b81516001600160a01b038116811461006957600080fd5b9392505050565b608051610274610091600039600081816056015261012301526102746000f3fe608060405234801561001057600080fd5b506004361061004c5760003560e01c8063218751b214610051578063313ce567146100955780637284e416146100a4578063feaf968c146100b9575b600080fd5b6100787f000000000000000000000000000000000000000000000000000000000000000081565b6040516001600160a01b0390911681526020015b60405180910390f35b6040516012815260200161008c565b6100ac6100f8565b60405161008c91906101b6565b6100c1610118565b6040805169ffffffffffffffffffff968716815260208101959095528401929092526060830152909116608082015260a00161008c565b606060405180606001604052806021815260200161021e60219139905090565b6000806000806000807f00000000000000000000000000000000000000000000000000000000000000006001600160a01b03166386fc88d36040518163ffffffff1660e01b8152600401602060405180830381865afa15801561017f573d6000803e3d6000fd5b505050506040513d601f19601f820116820180604052508101906101a39190610204565b9096909550600094508493508392509050565b600060208083528351808285015260005b818110156101e3578581018301518582016040015282016101c7565b506000604082860101526040601f19601f8301168501019250505092915050565b60006020828403121561021657600080fd5b505191905056fe7a4348462f5553445420637572766520706f6f6c207072696365206f7261636c65a264697066735822122057da4d77380769315f3647eae1d7d78cfed2f8d669b9338a150356e2073640f364736f6c63430008140033",
  "linkReferences": {},
  "deployedLinkReferences": {}
}