{
  "_format": "hh-sol-artifact-1",
  "contractName": "XETHUSDPriceAdapter",
  "sourceName": "contracts/XETHUSDPriceAdapter.sol",
  "abi": [
    {
      "inputs": [
        {
          "internalType": "address",
          "name": "_proxy",
          "type": "address"
        }
      ],
      "stateMutability": "nonpayable",
      "type": "constructor"
    },
    {
      "inputs": [],
      "name": "decimals",
      "outputs": [
        {
          "internalType": "uint8",
          "name": "",
          "type": "uint8"
        }
      ],
      "stateMutability": "pure",
      "type": "function"
    },
    {
      "inputs": [],
      "name": "description",
      "outputs": [
        {
          "internalType": "string",
          "name": "",
          "type": "string"
        }
      ],
      "stateMutability": "pure",
      "type": "function"
    },
    {
      "inputs": [],
      "name": "latestRoundData",
      "outputs": [
        {
          "internalType": "uint80",
          "name": "roundId",
          "type": "uint80"
        },
        {
          "internalType": "int256",
          "name": "answer",
          "type": "int256"
        },
        {
          "internalType": "uint256",
          "name": "startedAt",
          "type": "uint256"
        },
        {
          "internalType": "uint256",
          "name": "updatedAt",
          "type": "uint256"
        },
        {
          "internalType": "uint80",
          "name": "answeredInRound",
          "type": "uint80"
        }
      ],
      "stateMutability": "view",
      "type": "function"
    },
    {
      "inputs": [],
      "name": "proxy",
      "outputs": [
        {
          "internalType": "contract Proxy",
          "name": "",
          "type": "address"
        }
      ],
      "stateMutability": "view",
      "type": "function"
    }
  ],
  "bytecode": "0x60a060405234801561001057600080fd5b5060405161033e38038061033e83398101604081905261002f91610040565b6001600160a01b0316608052610070565b60006020828403121561005257600080fd5b81516001600160a01b038116811461006957600080fd5b9392505050565b6080516102ad6100916000396000818160a9015261013a01526102ad6000f3fe608060405234801561001057600080fd5b506004361061004c5760003560e01c8063313ce567146100515780637284e41614610065578063ec556889146100a4578063feaf968c146100f0575b600080fd5b604051601281526020015b60405180910390f35b604080518082018252601581527f784554482f555344207072696365206f7261636c6500000000000000000000006020820152905161005c91906101dd565b6100cb7f000000000000000000000000000000000000000000000000000000000000000081565b60405173ffffffffffffffffffffffffffffffffffffffff909116815260200161005c565b6100f861012f565b6040805169ffffffffffffffffffff968716815260208101959095528401929092526060830152909116608082015260a00161005c565b6000806000806000807f000000000000000000000000000000000000000000000000000000000000000073ffffffffffffffffffffffffffffffffffffffff1663798fdd2c6040518163ffffffff1660e01b8152600401606060405180830381865afa1580156101a3573d6000803e3d6000fd5b505050506040513d601f19601f820116820180604052508101906101c79190610249565b5060009890975088965086955085945092505050565b600060208083528351808285015260005b8181101561020a578581018301518582016040015282016101ee565b5060006040828601015260407fffffffffffffffffffffffffffffffffffffffffffffffffffffffffffffffe0601f8301168501019250505092915050565b60008060006060848603121561025e57600080fd5b835192506020840151915060408401519050925092509256fea2646970667358221220e27532a090800b85666e79b3d7c854335001980760f24646a037b5751b979f1564736f6c63430008140033",
  "linkReferences": {},
  "deployedLinkReferences": {}
}